:020000040800F2
:10000000580E002031020008D7280008EF20000811
:10001000D5280008550600086D35000800000000CE
:10002000000000000000000000000000452E000855
:100030005706000800000000432E0008E52E0008C7
:100040004B0200084B0200084B0200084B0200085C
:100050004B0200084B0200084B0200084B0200084C
:100060004B0200084B0200084B0200084B0200083C
:100070004B0200084B0200084B0200084B0200082C
:100080004B0200084B0200084B0200084B0200081C
:100090004B0200084B0200084B0200084B0200080C
:1000A0004B0200084B0200084B0200084B020008FC
:1000B0004B0200084B0200084B0200084B020008EC
:1000C0004B0200084B0200084B0200084B020008DC
:1000D0004B0200084B020008553500086135000846
:1000E0004B0200084B0200084B0200084B020008BC
:1000F0004B0200084B0200084B0200084B020008AC
:100100004B0200084B0200084B0200084B0200089B
:100110004B020008753200084B0200088D2F0008C2
:100120004B0200084B0200084B0200084B0200087B
:100130004B0200084B0200084B0200084B0200086B
:100140004B0200084B0200084B0200084B0200085B
:100150004B0200084B0200084B0200084B0200084B
:100160004B0200084B0200084B0200084B0200083B
:100170004B0200084B0200084B0200080000000080
:100180004B0200084B02000800F002F800F040F8B3
:100190000AA090E8000C82448344AAF10107DA45E2
:1001A00001D100F035F8AFF2090EBAE80F0013F0F4
:1001B000010F18BFFB1A43F0010318471C4A000047
:1001C0003C4A0000103A24BF78C878C1FAD85207D8
:1001D00024BF30C830C144BF04680C6070470000C1
:1001E0000023002400250026103A28BF78C1FBD840
:1001F000520728BF30C148BF0B6070471FB504F0DD
:10020000C4F89DE8030000F047F91FBD10B510BD0C
:1002100000F09EF91146FFF7F1FF03F087FA00F0B6
:10022000BCF903B4FFF7F2FF03BC00F0EDF90000E6
:100230000948804709480047FEE7FEE7FEE7FEE77A
:10024000FEE7FEE7FEE7FEE7FEE7FEE704480549B6
:10025000054A064B704700007D2F00088901000801
:1002600058080020580E0020580A0020580A002084
:1002700070B5064600F0F4F8056806F10B0020F0B2
:100280000704B4429CBF002070BD2B466A68BAB117
:100290001068A04210D304F1080188423CBF5068A6
:1002A000586007D35168101941601168091B01603B
:1002B00058601460101D70BD13465268002AE7D1C3
:1002C0002146284600F0D4F80028DED170BD70B574
:1002D0000446051F00F0C4F80068002C14BF4468F1
:1002E00070BD002C18BFAC423CBF20466468F8D3F8
:1002F00001680A18AA4218BF456003D12A6805465A
:100300001144016028684119A1421CBF6C6070BD96
:100310006168696021680844286070BD53EA020C76
:1003200000F069802DE9F04B4FF00006002B1FBF55
:10033000B3FA83F503FA05F424FA05F65E4012BF1A
:100340001643B2FA82F502FA05F4C5F120051EBF84
:1003500022FA05FC44EA0C04203556EA044C4FEA24
:10036000144418BF641C4FF000084FF0000990427D
:1003700071EB030C39D3002919BFB1FA81F701FAE7
:1003800007F6B0FA80F700FA07F6C7F120071EBF9C
:1003900020FA07FC46EA0C062037B6FBF4FCA7EB74
:1003A0000507103F07F01F0BCBF120060CFA0BFBE3
:1003B0002CFA06F644BFB3460026202FA4BF5E46A3
:1003C0004FF0000B5BEA060C08BF4FF0010B19EB76
:1003D0000B09ABFB027C48EB0608C01B06FB02CCFA
:1003E0000BFB03CC71EB0C01C1E70B460246414607
:1003F0004846BDE8F08B13B54FF000004FF0000108
:10040000AFF30080BDE81C4070474FF0000200B51C
:10041000134694469646203922BFA0E80C50A0E827
:100420000C50B1F12001BFF4F7AF090728BFA0E8D5
:100430000C5048BF0CC05DF804EB890028BF40F8A1
:10044000042B08BF704748BF20F8022B11F0804FE3
:1004500018BF00F8012B70477047704770470000C5
:1004600000487047FC07002070477047704770478E
:1004700038B504460A4600206946AFF300800028DC
:1004800008BF38BD02460099204600F03FF8012021
:1004900038BD012000F054B8F8B5AFF30080054630
:1004A00000200C46102000BF0646A819A0420DD916
:1004B000324669460020AFF30080070008BF00F015
:1004C0003FF80098A04218BF0546C419FFF7C8FFBF
:1004D00005600746F01D20F007004619284600F089
:1004E0000AF8B44208BFF8BDA21B31463868BDE81F
:1004F000F84000F00BB800210160C0E9011070471E
:100500001020704700487047F407002003464068F9
:100510008C46002818BF88423CBF03464068F8D389
:1005200018681844884207D00CF1030020F0070037
:10053000001D411A521A0146081D0A60FFF7C7BE86
:1005400010B500F039F8BDE8104000F02FB8704742
:100550007546FFF7D7FFAE4605006946534620F0C3
:100560000700854618B020B5FFF770FEBDE82040B3
:100570004FF000064FF000074FF000084FF0000B5F
:1005800021F00701AC46ACE8C009ACE8C009ACE812
:10059000C009ACE8C0098D46704710B50446AFF3FA
:1005A00000802046BDE81040FFF73BBE002801D088
:1005B00000F02AB87047000010B5012805D00021CE
:1005C00003A000F027F8012010BD09A1F8E7000002
:1005D00053494752544D454D3A204F7574206F662C
:1005E0002068656170206D656D6F72790000000094
:1005F0003A2048656170206D656D6F727920636F78
:10060000727275707465640001491820ABBEFEE714
:100610002600020070B505460C460A2000E06D1C5D
:1006200000F011F835B128780028F8D102E0641CF8
:1006300000F009F814B120780028F8D1BDE8704026
:100640000A20AFF3008008B569468DF8000003204A
:10065000ABBE08BDFEE770477FB5002500958DF85D
:100660000000F6208DF8010001958DF80210089C1D
:10067000100A8DF804208DF803008DF805308DF8F0
:1006800006406B208DF80700029503950821684607
:1006900003F042FA7FBD72B6FEE72DE9F041044651
:1006A000876D00F065F9064694F8350000250228AC
:1006B00006D08020606584F834500120BDE8F081C8
:1006C0002068016821F0160101602068416921F06D
:1006D00080014161206C08B9A06C20B120680168DC
:1006E00021F0080101602068016821F0010101602A
:1006F0000CE000F03DF9801B052807D9202060653B
:10070000032084F8350084F83450D7E72068006867
:10071000C007EED194F85C103F208840B8600120FB
:1007200084F8350084F834500020C7E790F835107D
:10073000022903D08021416501207047052180F8FE
:1007400035100068016821F0010101600020704748
:1007500070B5044600F00CF90546601C02D0044850
:100760000078044400F004F9401BA042FAD370BDA5
:10077000180000202DE9F84FDFF8BCA10022012568
:1007800003264FF00F090AF1040BAAF1040E00BF73
:100790000B6805FA02F42340A34270D10F7907F0E9
:1007A0000307012F01D0022F16D187684FEA4208B4
:1007B00006FA08FC27EA0C07D1F80CC00CFA08FC72
:1007C0004CEA070CC0F808C04768A7430C79C4F38B
:1007D000001494403C4344600C79E443A4070AD0DD
:1007E000C4684FEA420C06FA0CF7BC438F6807FA5C
:1007F0000CF72743C7600C7904F00304022C12D1D4
:10080000D40800EB840CDCF820405707FF0E09FAEF
:1008100007F824EA0804D1F8108008FA07F848EA33
:100820000408CCF8208004684FEA420C06FA0CF762
:10083000BC430F7907F0030707FA0CF7274307605B
:100840004C6814F4403F70D03C4C276847F4804714
:100850002760246822F0030704F480440094384C95
:1008600007EB040CDCF8084897074FEA177809FAF9
:1008700008F7BC43334FB84202D1002724E054E0CC
:10088000314FB84201D101271EE0304FB84201D1AB
:10089000022719E02E4FB84201D1032714E02D4F53
:1008A000B84201D104270FE02B4FB84201D10527F0
:1008B0000AE02A4FB84201D1062705E0284FB84286
:1008C00001D1072700E0082707FA08F72743CCF8EB
:1008D0000878DAF800405746D1F804C09C435FEA34
:1008E000CC2C00D51C433C60DBF800405F46D1F8BF
:1008F00004C09C435FEA8C2C00D51C433C60DEF8AE
:1009000000407746D1F804C09C435FEA8C3C00D598
:100910001C433C60084F083F3C68D1F804C09C432E
:100920005FEACC3C00D51C433C60521C102AFFF40B
:100930002FAFBDE8F88F0000083C0140443802406A
:100940000030014000000240000402400008024064
:10095000000C024000100240001402400018024047
:10096000001C02400069084000D0012070470000D0
:1009700001488068704700001800002070B504002E
:1009800025D094F83D00002520B984F83C5020463D
:1009900000F04EF9242084F83D002068016821F021
:1009A000010101602068016841F400410160206894
:1009B000016821F40041016000F0A4FA4D4A616829
:1009C000914201D84C4900E04C49884201D20120B3
:1009D00070BD4B492368B0FBF1F15E6826F03F061D
:1009E0000E435E606368934206D94FF49673594391
:1009F0004FF47A73B1FBF3F12368491C1E6A26F0A9
:100A00003F06314319626168914210D84900401E87
:100A1000B0FBF1F2521CC2F30B02042A01D20420F3
:100A200022E0B0FBF1F0401CC0F30B001CE0A26818
:100A3000F2B301EBC10303EB0116431EB3FBF6F364
:100A40005B1C43F480431B0549D092B301EBC10208
:100A500002EB0111401EB0FBF1F0401CC0F30B0093
:100A600040F4804040F400402168CA694CF6FF73AE
:100A70009A431043C861D4E9071001432068026813
:100A800022F0C00211430160D4E903010143206850
:100A9000826848F2FF339A4311438160D4E905012B
:100AA00008432168CA6822F0FF021043C86001E0D1
:100AB0000EE016E02068016841F001010160256444
:100AC000202084F83D00256384F83E50002070BD4E
:100AD00001EB4106431EB3FBF6F35B1CB3E70120B9
:100AE000C2E701EB4101401EB0FBF1F0401CC0F336
:100AF0000B00B7E7A086010080841E0000093D00BE
:100B000040420F002DE9F84F1F4690468A460446A2
:100B1000DDF82890FFF72CFF054694F83D002028CB
:100B20007FD11923012240492046009501F072FB34
:100B3000002876D194F83C00012872D0012084F876
:100B40003C0020680168C90703D1016841F0010138
:100B500001602068016821F400610160212084F8AF
:100B60003D00102084F83E0000262664C4F824804E
:100B70006785608D20852D48E0622B464A465146A8
:100B8000204601F0CDFA90B9206841698069009053
:100B900036E02A464946204601F0E2FB50B1206C7F
:100BA000042804D12068016841F40071016001202B
:100BB000BDE8F88F606A216800780861606A401CAF
:100BC0006062618D491E6185218D491E89B2218532
:100BD00022685369DB435B070BD451B10078106185
:100BE000606A401C6062608D401E6085208D401EE2
:100BF00020852A464946204601F0E0FA0028CED159
:100C0000208D0028C5D154F83D0B016841F40071D6
:100C10000160202004F81E09E67766770020C7E708
:100C2000FFE70220C4E70000020010000000FFFF01
:100C300010B586B0044614216846FFF7E6FB144958
:100C40002068884221D113480021026842F0020244
:100C50000260006800F0020005904FF440700090C0
:100C60001220CDE90101032003900420049069467D
:100C70000948FFF77FFD07481030016841F4001173
:100C80000160006800F40010059006B010BD00007F
:100C9000005400403038024000040240024881689D
:100CA0000278114481607047180000200B4810B58D
:100CB000016841F400710160016841F480610160E4
:100CC000016841F480710160032000F06FF80F208B
:100CD00000F006F800F024F8002010BD003C0240AF
:100CE00070B50D4D04464FF47A712878B1FBF0F0E1
:100CF0000A490968B1FBF0F000F00AFB48B9102C72
:100D000007D200222146501E00F030F800206C600F
:100D100070BD012070BD00001800002024000020DC
:100D20000A4808B5016841F480410160006800F498
:100D3000804000900548001F016841F0805101602B
:100D4000006800F08050009008BD00004438024068
:100D5000002809DB00F01F020121914040098000BA
:100D600000F1E020C0F8001170470000F0B40E4B15
:100D70001B680C46C3F30223C3F10705042D00D9F9
:100D80000425191D072901D2002300E0DB1E0126DE
:100D900006FA05F1491E214099409E40761E1640F4
:100DA0003143F0BC02F0E3BB0CED00E0064900F07B
:100DB000070208684FF6FF03184040EA0220034A82
:100DC00010430860704700000CED00E00000FA05D9
:100DD0002DE9F0470E46050065D0DFF81481D8F8FC
:100DE0000000F7B200F00700B04207D288F80070A8
:100DF000D8F8000000F00700B04254D128683D4CFC
:100E0000810712D5400703D5206840F4E0502060E8
:100E10002878000703D5206840F4604020602068EF
:100E2000A96820F0F000084320602878C0072DD082
:100E3000304968680839012812D0022813D00328E5
:100E400011D00968890700292DDA216821F00301F2
:100E500001432160FFF78CFD814641F2883A0EE0A4
:100E600009688903EFE709688901ECE7FFF780FD6E
:100E7000A0EB0901514502D90320BDE8F0872068A5
:100E8000696800F00C00B0EB810FEFD1D8F80010CA
:100E9000404601F00701B14207D90770006800F031
:100EA0000700B04201D00120E7E72878400705D5C8
:100EB0002068E96820F4E0500843206028780007A3
:100EC00006D52068296920F4604040EAC10020600E
:100ED00000F038F82168084AC1F30311515CC8409A
:100EE0000649086006480068FFF7FAFE0020C4E7DC
:100EF000003C0240083802409443000824000020CF
:100F00001C0000200448054900680968044AC1F330
:100F10008221515CC84070472400002008380240FC
:100F2000A44300080448054900680968044AC1F35D
:100F30004231515CC840704724000020083802400C
:100F4000A4430008154810B5006810F00C021448BE
:100F500013D04110042A0FD0082A0ED10F4C241FA1
:100F60002268236802F03F025B0207D52068C0F3C5
:100F70008810A0FB010106E0084610BD2168C1F3FE
:100F80008811A1FB00010023FFF7C8F92168C1F314
:100F90000141491C4900B0FBF1F010BD0838024086
:100FA0000024F4002DE9F84F04006ED02078DFF81B
:100FB0004C93C007A9F104054AD009F10400016867
:100FC000C1F38101012908D00068C0F38100022823
:100FD0000AD1D9F80000400206D52868800337D529
:100FE00060680028E1D033E06068B0F5803F10D041
:100FF000B0F5A02F286810D020F480302860286831
:1010000020F4802028606068A8B1FFF7B1FC064694
:101010000DE0286840F48030F4E740F48020286038
:10102000F7E700BFFFF7A4FC801B642873D828688B
:101030008003F7D50CE0FFF79BFC064605E000BFF8
:10104000FFF796FC801B6428F0D828688003F7D44B
:101050002078DFF8AC8280074FF0000A3ED5A74821
:10106000001D016811F00C0F08D00068C0F381006A
:1010700002280BD1D9F80000400207D42868800765
:1010800016D5E068012800D112E033E1E068B8B17C
:101090000120C8F80000FFF76BFC064605E000BF22
:1010A000FFF766FC801B0228C0D828688007F7D5A8
:1010B0002868216920F0F80040EAC10028600DE0AE
:1010C000C8F800A0FFF754FC064604E0FFF750FC08
:1010D000801B02281FD828688007F7D420780007D3
:1010E00022D5864F87486169703771B1012101604F
:1010F000FFF73EFC064604E0FFF73AFC801B02289F
:1011000009D838688007F7D50EE0C0F800A0FFF7CF
:101110002FFC064605E082E0FFF72AFC801B022830
:101120007DD838688007F7D42078400768D5DFF885
:10113000CCB100270BF13C0BDBF80000C0000BD456
:10114000DBF8001041F08051CBF80010DBF8000014
:10115000012700F0805000906B4E3068C00510D41D
:10116000306840F480703060FFF702FC009005E0CA
:10117000FFF7FEFB0099401A022850D83068C005DE
:10118000F6D55E4EA0686C3601280FD00528306871
:1011900010D020F001003060306820F00400306092
:1011A000A068B8B1FFF7E4FB00900FE0306840F0B2
:1011B0000100F4E740F004003060F7E7FFF7D8FBE8
:1011C0000099411A41F28830814266D83068800720
:1011D000F4D50EE0FFF7CCFB009007E0FFF7C8FB6B
:1011E0000099411A41F28830814256D83068800710
:1011F000F4D42FB1DBF8001021F08051CBF80010AF
:10120000A069C8B33D49091D0968C1F381010229DC
:101210004AD00228504607D0C8F8600000E03CE001
:10122000FFF7A6FB04463BE04746C8F86000FFF71F
:101230009FFB064605E000BFFFF79AFB801B0228D4
:101240002BD828688001F7D4D4E907010843A16AA4
:101250002E4A490802EB0141626A41EA82110843C1
:1012600094F82C1040EA0161C9F80010012038669A
:10127000FFF77EFB044606E03EE000BFFFF778FB89
:10128000001B022809D828688001F7D534E000BF88
:10129000FFF76EFB001B022802D90320BDE8F88F80
:1012A00028688001F4D427E00128F7D0D9F800009D
:1012B000E26900F4800191421CD1226A00F03F01F2
:1012C000914217D147F6C071626A0140B1EB821FAB
:1012D00010D1A26A4FF0FF3300F4403103EB520209
:1012E000B1EB024F06D194F82C1000F07060B0EB17
:1012F000016F01D00120D1E70020CFE70438024080
:1013000000004742800E4742007000400000FFFF8F
:1013100010B5401EB0F1807F01D3012010BD4FF009
:10132000E02460610F21601702F021F90020A06124
:1013300007202061002010BD7047704710B590F85D
:101340003C20012A22D0012280F83C20CA688C6807
:1013500022F4407222434C6822F4806222430C68DB
:1013600022F4006222430C6922F4805222434C6929
:1013700022F400522243C969002322F480420A4326
:1013800001684A6480F83C30002010BD022010BD86
:1013900070B590F83C20012A32D0012480F83C40FE
:1013A000022280F83D2003685A689D6822F070068A
:1013B0000A6832435A60134B02689A4214D0B2F161
:1013C000804F11D0104B9A420ED0104B9A420BD046
:1013D0000F4B9A4208D00F4B9A4205D00E4B9A42BF
:1013E00002D00E4B9A4204D1496825F0800319437C
:1013F000916080F83D40002180F83C10084670BDA7
:10140000022070BD000001400004004000080040C0
:10141000000C004000040140004001400018004062
:1014200010B5040003D094F83D0010B107E001208E
:1014300010BD002084F83C00204600F01FF8022078
:1014400084F83D00211D206801F0A6FD012084F8EC
:10145000460084F83E0084F83F0084F8400084F899
:10146000410084F8420084F8430084F8440084F882
:10147000450084F83D00002010BD000008B501685B
:101480001E48814201D11E4810E01D48001FB1F1E5
:10149000804F0BD01B4A914210D1016841F00201EC
:1014A0000160006800F00200009008BD016841F092
:1014B00001010160006800F00100F5E7124A914265
:1014C00007D1016841F004010160006800F00400E8
:1014D000EAE70E4A9142E8D1016841F0200101603B
:1014E0000068002200F02000009011463720FFF72E
:1014F0003DFCBDE808403720FFF72ABC0000014052
:10150000443802400004004000080040001400403D
:1015100090F83D10012901D001207047022180F888
:101520003D100168CA6842F00102CA6000681149B2
:10153000884214D0B0F1804F11D00F4988420ED0AC
:101540000E4988420BD00E49884208D00D49884286
:1015500005D00D49884202D00C49884204D18168E7
:1015600001F00701062903D0016841F00101016083
:1015700000207047000001400004004000080040C7
:10158000000C0040000401400040014000180040F1
:1015900070B5044690F83C000025012817D00126BC
:1015A00084F83C60022084F83D002068826822F0C4
:1015B000770222F47F4282600868502838D00DDC20
:1015C00020284FD005DC90B3102811D14AE002202A
:1015D00070BD302846D040280AD13BE060282FD08B
:1015E00070280DD0B0F5805F03D0B0F5005F12D049
:1015F000012584F83D60002084F83C00284670BD39
:10160000CB68D1E90121206801F03BFD20688168A9
:1016100041F0770109E0CB68D1E90121206801F0B0
:1016200030FD2068816841F480418160E1E719E084
:10163000CA684968206801F0F9FD5021206806E079
:10164000CA684968206801F002FE6021206801F044
:1016500022FDCEE7CA684968206801F0E7FD402115
:101660002068F4E7226801461046F0E770472DE94C
:10167000F04104460068C66805694FF00007A907F5
:1016800013D5B10711D5F91E01610120207720681B
:1016900080698007204602D0FFF7E8FF04E000F0F1
:1016A000FDF8204600F0A2F92777680716D57007E5
:1016B00014D521686FF004000861022020772068AB
:1016C000806910F4407F204602D0FFF7CFFF04E08E
:1016D00000F0E4F8204600F089F92777280715D5AF
:1016E000300713D521686FF00800086104202077C7
:1016F0002068C0698007204602D0FFF7B7FF04E0EA
:1017000000F0CCF8204600F071F92777E80616D5EE
:10171000F00614D521686FF01000086108202077CA
:101720002068C06910F4407F204602D0FFF79EFF7A
:1017300004E000F0B3F8204600F058F92777E807F6
:1017400008D0F00706D021686FF00100086120463C
:1017500000F0B2F9280608D5300606D521686FF0EA
:10176000800008612046FFF7E7FD680608D570068F
:1017700006D521686FF040000861204600F0EAF9C4
:10178000A8060AD5B00608D521686FF020000861C8
:101790002046BDE8F041FFF7D0BDBDE8F081000074
:1017A00070B586B0044614216846FEF72EFE246804
:1017B000314E00223149022301253148B4420AD179
:1017C0000C6844F010040C60096801F010010591E8
:1017D0004FF4C0414BE0B4F1804F13D0294E0325A4
:1017E000B44223D1086840F0020008600868009500
:1017F000CDE9013200F00200CDE9043069460392E0
:1018000021480FE0086840F0010008600868694658
:1018100000F0010005900C200090CDE901321B483A
:10182000CDE90325FEF7A6FF06B070BD184EB44201
:1018300011D1086840F0080008600868694600F0A7
:10184000080005904FF440400090CDE90132114866
:10185000CDE90323E6E7104EB442E5D10C6844F02D
:1018600010040C60096801F010010591202100911D
:10187000CDE901326946D3E700000140303802402B
:10188000001002400004004000040240000002403A
:1018900000080040000C024000400140704770B555
:1018A000044690F83C0000260D4601280FD0012088
:1018B00084F83C006AB1042A1DD0082A2FD00C2AD3
:1018C0003FD00126002084F83C00304670BD022045
:1018D00070BD206801F0E8FB2068816941F00801D3
:1018E00081612068816921F004018161206881693A
:1018F0002A69114311E0206801F006FC2068816923
:1019000041F4006181612068816921F48061816115
:10191000206881692A6941EA02218161D2E7206851
:1019200001F028FC2068C16941F00801C16120680C
:10193000C16921F00401C1612068C1692A691143AC
:1019400011E0206801F04AFC2068C16941F400619F
:10195000C1612068C16921F48061C1612068C169E9
:101960002A6941EA0221C161ACE710B5040003D045
:1019700094F83D0010B107E0012010BD002084F86C
:101980003C00204600F01EF8022084F83D00211D96
:10199000206801F001FB012084F8460084F83E0035
:1019A00084F83F0084F8400084F8410084F8420045
:1019B00084F8430084F8440084F8450084F83D002E
:1019C000002010BD08B500680649884208D10648C5
:1019D000016841F480310160006800F480300090BB
:1019E00008BD00000040014044380240704700003C
:1019F00010B50446022249B104290ED0082913D09B
:101A000094F84100012816D0012010BD94F83E0042
:101A10000128F9D184F83E200FE094F83F00012816
:101A2000F2D184F83F2008E094F840000128EBD17F
:101A300084F8402001E084F841200122206801F070
:101A400013FB16492068164A884201D0904203D100
:101A5000436C43F4004343642068884213D0B0F1E0
:101A6000804F10D00F4988420DD00F4988420AD0CC
:101A70000E49884207D0904205D00D49884202D0D5
:101A80000C49884204D1816801F00701062903D07E
:101A9000016841F001010160002010BD000001401B
:101AA000000401400004004000080040000C004019
:101AB000004001400018004010B500681E498842EF
:101AC00038D11E4C9FED1E0A1F492088401C2080E3
:101AD0001C4880ED000A91ED000A80ED010A01F03A
:101AE0004CF91A48008828B160801948008820B154
:101AF000A08005E04FF4AA70F6E74FF4A071A18032
:101B0000618800EE101A0F49B8EE400A443181EDA9
:101B1000010A00EE100A01F14400B8EE400A80ED1F
:101B2000010A443801F029F90648BDE81040883020
:101B300001F023B910BD000000140040380000205F
:101B400000000000280700203400002000000020D2
:101B5000020000207047704770470000F8B5016828
:101B600004460868CA684B6910F00F0F4FF0000573
:101B700059D003F0010602F49077374365D0C107CE
:101B800005D0D10503D5616C41F0010161644107C5
:101B900005D5D90703D0616C41F00201616481076A
:101BA00005D5D90703D0616C41F0040161640107D8
:101BB00007D502F02001314303D0616C41F00801E8
:101BC0006164616C00293AD0800604D5900602D584
:101BD000204601F083FB20684069616CC0F38010EF
:101BE000090700D460B3204601F051FB206840692A
:101BF000400621D52068143050E8001F21F0400134
:101C000040E80012002AF5D1E06BA8B172490165E5
:101C1000E06BFEF78BFD002811D0E06B016D01B089
:101C2000BDE8F040084783060FD593060DD5204642
:101C3000BDE8F84001F052BB2046FFF78DFFF8BD2C
:101C40002046FFF789FF6564F8BD266B2023012E2F
:101C50007ED1C6067CD5D6067AD50868486800903D
:101C600048694FF0020640064DD5E26B10684068A7
:101C70004FF480770004000C3AD0A18D814237D90F
:101C8000E085D069B8422DD020680C3050E8001FA4
:101C900021F4807140E80012002AF5D12068143048
:101CA00050E8001F21F0010140E80012002AF5D1A0
:101CB0002068143050E8001F21F0400140E8001275
:101CC000002AF5D184F84230256320680C3050E8B2
:101CD000001F21F0100140E80012002AF5D1E06B4E
:101CE000FEF7DBFC6663A08DE18D401A81B206E051
:101CF000A18D8142A8D1D069B842A5D166632046A2
:101D0000FFF729FFF8BDA08DE18D401A81B2E08D6B
:101D10000028F7D00029F5D020680C3050E8002FBB
:101D200022F4907240E80027002FF5D1206814308B
:101D300050E8002F22F0010240E80027002FF5D1E3
:101D400084F84230256320680C3050E8002F00E012
:101D500006E022F0100240E80023002BF3D1CDE78B
:101D600005062BD5150629D594F841002128C9D19F
:101D7000A068B0F5805F01D12069B0B1206A411C34
:101D80002162216800784860E08C401E0004000C4D
:101D9000E084B7D12068C16821F08001C16020686B
:101DA000C16841F04001C160F8BD206A0088C0F3FD
:101DB00008004860206A801C2062E5E74006F3D5F1
:101DC0005006F1D5CA68204622F04002CA6084F865
:101DD000413000F08BF9F8BD8132000870B5040085
:101DE00004D094F84100002510B106E0012070BD38
:101DF00084F84050204600F023F8242084F8410065
:101E00002068C16821F40051C160204601F0C8FA81
:101E10002068016921F4904101612068416921F045
:101E20002A0141612068C16841F40051C1606564C4
:101E3000202084F8410084F842006563002070BDD2
:101E40002DE9F04186B0044614216846FEF7DDFA1C
:101E50004849474B27680024464A10390225032683
:101E60004548DFF818819F4232D1136843F480134C
:101E70001360126802F4801205920A6842F00402AC
:101E80000A600A6802F0040205920A6842F0080239
:101E90000A60096802AB01F0080105918114CDE9DF
:101EA0000015082783E8D0006946FEF763FC04208C
:101EB000CDE9000502AB694683E8D0004046FEF755
:101EC00059FC002211463520FEF750FF352024E052
:101ED000DFF8ACC00723674524D1106840F4003018
:101EE0001060106800F400300590086840F00800A9
:101EF00008600868029400F0080005906020CDE9B1
:101F00000005CDE9036369464046FEF733FC002235
:101F100011462620FEF72AFF2620FEF719FF06B0FD
:101F2000BDE8F081DFF85CC06745F8D1176847F479
:101F300080271760126802F4802205920A6842F036
:101F400004020A600968029401F0040105914FF44B
:101F50004061CDE90015CDE903636946FEF70AFC4F
:101F6000002211462720FEF701FF2720D5E70000B9
:101F7000005000404038024000080240000C02407F
:101F8000004400400048004090F84230202B01D02F
:101F90000220704721B11AB10023036301F086BA11
:101FA0000120704770B5054600682249224C8842DE
:101FB0002BD1214601F10C000A786378897823B18E
:101FC000012B07D0022B0AD01AE0AA2A18D14254BA
:101FD000012013E0552A13D1425402200EE042544E
:101FE000491CC9B2A17008290AD14188134A49BACB
:101FF00011808088124940BA088000206070A0706B
:1020000001220D490F48FFF7BFFF0F49286888429A
:102010000ED1A068401CA060E07801F029FB0649C1
:10202000BDE8704007480122C91C4830FFF7ACBF2B
:1020300070BD0000004400400400002000000020AB
:10204000020000208C020020004800402DE9F843E7
:10205000044690F84100984616460D46202802D0C6
:102060000220BDE8F88385B17EB1002060642120A4
:1020700084F84100FEF77CFCA6848146E684A068D3
:102080002027B0F5805F02D003E00120E9E7206956
:1020900010B12E4600250EE000260CE080212046DF
:1020A00001F01FFAA8B9C6B116F8010B2168486003
:1020B000E08C401EE084E08C4B464FF00002CDF8EF
:1020C00000800028EAD14FF04001204601F009FAD3
:1020D00040B184F841700320C3E735F8020BC0F328
:1020E0000800E3E784F841700020BAE77047FEE794
:1020F00001684A69D24352050FD46FF480624A6185
:10210000002140F8301F202242738173026942F09F
:102110000402026101730120704700207047000033
:10212000F8B50446C06A1E460D461746082807D073
:10213000012805D010F5803F02D0206B122804D171
:102140002068016841F480710160134600224FF05D
:1021500001112046009600F05DF840B1206800684B
:10216000C00502D54FF4007020640320F8BD20693B
:10217000B0F5804F0ED00620216800EAD51040F05F
:10218000F000086133463A460B49204600F08AF8D1
:1021900078B902E005F0FE0000E0E8B221680861CD
:1021A000054933463A46891F204600F07BF800284F
:1021B000DCD00120F8BD00000800010070B5164613
:1021C0000D4604461EE02046FFF792FF08B10120AD
:1021D00070BD681C16D0FEF7CBFB801BA84200D850
:1021E00085B920684069C04340070BD5002044F8FA
:1021F000300F20216173A073216941F0200121611A
:102200002073E4E720684069C0434007DBD4002026
:1022100070BD00002DE9F047984617460D4604466C
:10222000C1F30746DDF820902AE000BFB8F1FF3F78
:1022300026D0FEF79DFBA0EB0901414502D8B8F17D
:10224000000F1DD12068012E16D0806925EA0000FC
:102250000004000C12D00020B84211D1002044F834
:10226000300F20216173A073216941F020012161A9
:1022700020730120BDE8F0874069E7E70120EBE724
:102280002068012E0AD0806925EA00000004000CB5
:1022900006D00020B842C9D00020EBE74069F3E740
:1022A0000120F7E72DE9F047984616460D4604460B
:1022B0004FF000094FF0200AC1F3074723E02068E0
:1022C0004069C043400515D42068016841F400719D
:1022D000016021686FF480604861C4F8309084F830
:1022E0003DA084F83E90216C41F00401216484F803
:1022F0003C9021E0701C06D0FEF73AFBA0EB0800F2
:10230000B04203D816B1012F1FD021E02068012F61
:1023100015D0806925EA00000004000C18D000BF29
:1023200044F8309F84F80DA084F80E90216941F0A4
:102330002001216184F80C900120BDE8F0874069FC
:1023400025EA00000004000CEAD12068406901E0A1
:102350002068806925EA00000004000CAFD1ECE79A
:1023600070B516460D4604461EE02046FFF7C0FE37
:1023700008B1012070BD681C16D0FEF7F9FA801B69
:10238000A84200D885B920684069C04300060BD533
:10239000002044F8300F20216173A073216941F0BF
:1023A000200121612073E4E720684069C0430006F2
:1023B000DBD4002070BD000010B586B01421684643
:1023C000FEF723F828480024016841F0100101605D
:1023D000016801F010010591016841F004010160FC
:1023E000016801F004010591016841F0800101607C
:1023F000016801F080010591016841F0010101606F
:10240000016801F001010591016841F002010160DC
:10241000016801F002010591016841F008010160C5
:102420000068694600F0080005904FF48070CDE91F
:1024300000040E480294FEF79DF90820CDE900043F
:1024400069460B480294FEF795F9C02000900220DF
:10245000CDE9010403200390072004906946054854
:10246000FEF788F906B010BD30380240000802407F
:10247000000C0240000402400D4810B50B490160F9
:102480000C49416000214FF480428160C0E9031291
:1024900041618161C1610162FEF770FA002803D0D9
:1024A000BDE81040FEF7F7B810BD00000054004032
:1024B00040000020801A060010B596B000240F944A
:1024C00010941194129413941C2168461494FDF7EF
:1024D0009CFF202107A8FDF798FF2C482A49C0E956
:1024E000001442F21071C0E9024180210461C0E988
:1024F0000541FEF795FF08B1FEF7CDF84FF4805087
:102500000F900FA92148FFF743F808B1FEF7C3F871
:102510001E48FFF72AFA08B1FEF7BDF8139413A975
:102520001A481494FEF734FF08B1FEF7B4F860209F
:10253000CDE90004029403940494059408226946AA
:1025400012480694FFF7ABF908B1FEF7A4F80C2285
:1025500069460E48FFF7A3F908B1FEF79CF8079407
:10256000089409944FF400500A94CDE90B4007A950
:1025700006480E94FEF7E2FE08B1FEF78CF8034819
:10258000FFF70EF916B010BD0000014094000020C6
:1025900010B58EB000240794089409940A940B9403
:1025A0001C2168460C94FDF730FF22484FF0804113
:1025B000C0E9001442F21071C0E9024180210461B7
:1025C0008161FEF72DFF08B1FEF765F84FF48050EA
:1025D000079007A91748FEF7DBFF08B1FEF75BF885
:1025E0001448FFF7C2F908B1FEF755F80B940BA990
:1025F00010480C94FEF7CCFE08B1FEF74CF86020B2
:10260000CDE900040294082269460A480494FFF7C1
:1026100046F908B1FEF73FF80C2269460548FFF776
:102620003EF908B1FEF737F80248FFF7B9F80EB0E7
:1026300010BD0000DC00002010B58EB0002407940F
:10264000089409940A940B941C2168460C94FDF795
:10265000DCFE23482149C0E9001442F21071C0E9B0
:102660000241802104618161FEF7DAFE08B1FEF7C4
:1026700012F84FF48050079007A91948FEF788FF19
:1026800008B1FEF708F81648FFF76FF908B1FEF732
:1026900002F80B940BA912480C94FEF779FE08B1CE
:1026A000FDF7F9FF6020CDE9000404200490082222
:1026B000694602940A48FFF7F2F808B1FDF7EBFF0C
:1026C0000C2269460648FFF7EAF808B1FDF7E3FF78
:1026D0000348FFF765F80EB010BD0000000400408D
:1026E0002401002010B58EB00024079408940994AA
:1026F0000A940B941C2168460C94FDF786FE224830
:102700002049C0E9001442F21071C0E90241802161
:1027100004618161FEF784FE08B1FDF7BCFF4FF450
:102720008050079007A91848FEF732FF08B1FDF75F
:10273000B2FF1548FFF719F908B1FDF7ACFF0B948C
:102740000BA911480C94FEF723FE08B1FDF7A3FF77
:102750006020CDE900040294082269460A480494E6
:10276000FFF79DF808B1FDF796FF0C226946064871
:10277000FFF795F808B1FDF78EFF0348FFF710F853
:102780000EB010BD000800406C0100201CB50024F4
:102790000F4800940D49019401604AF20F41C0E9CD
:1027A00001140921C16080218161FEF739FE08B161
:1027B000FDF771FF0094694605480194FEF7E8FDB6
:1027C000002801D0FDF767FF1CBD00000014004089
:1027D000B401002010B588B01C216846FDF715FE35
:1027E000114810490024C0E900146421C0E90241E5
:1027F000802104618161FFF7B8F808B1FDF74BFF54
:102800006020CDE900040294002269460648049441
:10281000FFF745F808B1FDF73EFF0348FEF7C0FF9C
:1028200008B010BD00400140FC0100200C4810B56C
:102830000A4901604FF4E1314160002181600C22BE
:10284000C160C0E904128161C161FFF7C7FA0028C5
:1028500003D0BDE81040FDF71EBF10BD0050004082
:10286000440200200C4810B50A4901604FF416518B
:102870004160002181600C22C160C0E904128161C5
:10288000C161FFF7ABFA002803D0BDE81040FDF7A7
:1028900002BF10BD004400408C0200200C4810B55F
:1028A0000A4901604FF416514160002181600C22F9
:1028B000C160C0E904128161C161FFF78FFA00288D
:1028C00003D0BDE81040FDF7E6BE10BD0048004053
:1028D000D4020020FEE7FEE710B50021074C0A46AF
:1028E000002004EBC1131A54401CC0B28028FAD354
:1028F000491CC9B20829F3D310BD00001C030020F5
:10290000F0B50B4424E0044685181DE07F2C19D84F
:10291000002917DB3F2915DCCE1701EB56764FEA6D
:10292000E60C0D4F26F0070607EBCC172744A1EB6A
:10293000060E97F800C0012606FA0EF62CEA060CE1
:1029400087F800C0641C24B2A542DFDC491C09B230
:102950008B42D8DCF0BD00001C03002000204FF4A7
:102960007A720021491C9142FCD3401C9042F8D35A
:10297000704710B5FFF7F2FFAE2000F0B7F9D52091
:1029800000F0B4F9802000F0B1F9A82000F0AEF911
:102990003F2000F0ABF9D32000F0A8F9002000F0B0
:1029A000A5F9402000F0A2F9A12000F09FF9C8206D
:1029B00000F09CF9DA2000F099F9122000F096F965
:1029C000812000F093F9CF2000F090F9D92000F099
:1029D0008DF9F12000F08AF9DB2000F087F9302032
:1029E00000F084F9A42000F081F9A62000F07EF91F
:1029F0008D2000F07BF9142000F078F9AF2000F072
:102A000075F9FFF769FFBDE8104000F05BB90246B9
:102A1000012000E05043491EFCD2704710B50C461F
:102A200040F0B00000F062F9102040EA141000F00D
:102A30005DF904F00F00BDE8104000F057B9000048
:102A400008B5082B0DD0062B0AD10A4B02EB420227
:102A500003EB4202C03A00920823062200F080F8FD
:102A600008BD054B03EB0212A2F500721023009281
:102A70000822F3E79C490008AC4300082DE9F04F19
:102A80009A462DED028BB0EE408AF0EE608A81B05E
:102A90009FED310B15468B46074653EC102B51EC3E
:102AA000180B0C9C01F07AFA234605D82B225946C4
:102AB0003846FFF7C5FF0AE02D2259463846FFF792
:102AC000BFFF51EC180B01F02FF841EC180B51EC43
:102AD000180B01F0E9F8814601F013F953EC182BBB
:102AE00001F0ECFA41EC180B51460A20FFF78FFF7A
:102AF000804601F006F953EC182B01F051F941EC36
:102B0000100B00F045FD51EC100B01F0CDF8B0FBBF
:102B1000F8F1064601EB0902381900B22B46594676
:102B2000009400F07DF8681C00FB047000B223469E
:102B30002E225946FFF784FFAD1C05FB047000B23E
:102B4000534632465946009400F06AF801B0BDEC95
:102B5000028BBDE8F08F00000000000000000000C4
:102B60002DE9F04F1F4616460C4682460025FFF71A
:102B7000C7FE7F1EF81707EB50700121DFF89CB0ED
:102B800001EBE00745E000203FE000BF0AEB000357
:102B90007F2B38D8E11704EB5171CA1021F00701DF
:102BA000611A002C03DA521E083112B209B202EB8C
:102BB0000509B9F1070F10D80BEBC91E1EF8032049
:102BC00015FB06F8DDF824C0844418F80CC00CFA94
:102BD00001FC42EA0C020EF8032009F10102072A67
:102BE00011D80BEBC91202EB030898F8803015FBE3
:102BF00006FC099AC1F1080102441CF80220CA40EF
:102C0000134388F88030401CC0B2B042BED36D1C64
:102C1000EDB2AF42B7DCBDE8F08F00001C0300202E
:102C20002DE9F04700241D4690468A4681460A2732
:102C3000089E14E0291B0A20491EFFF7E8FEB8FB96
:102C4000F0F0B0FBF7F107FB110204FB069000B2B5
:102C5000334651463032FFF7F3FE641CE4B2AC4217
:102C6000E8D3BDE8F0872DE9F0471E46DDF8208067
:102C700014008A468146434604D42B22FFF7E0FE27
:102C8000254603E02D22FFF7DBFE654200240A27DC
:102C900014E0311B0A20491EFFF7B9FEB5FBF0F026
:102CA000B0FBF7F107FB1102641C04FB089000B2B3
:102CB000434651463032FFF7C3FEE4B2B442E8D394
:102CC000BDE8F08770B5084D002400212046FFF7CD
:102CD000A5FE05EBC410802100F018F8641CE4B2D6
:102CE000082CF2D370BD00001C0300201CB500218D
:102CF00001918DF805000A200090022301AA782195
:102D00000148FDF7FFFE1CBD40000020F8B5064657
:102D10000C46481CFDF7ACFA054640202870002000
:102D200004E0315C2A18401C5170C0B2A042F8D3B4
:102D30000A200090631C2A4678210448FDF7E2FE31
:102D40002846BDE8F840FDF7C2BA00004000002068
:102D500010B500F1140C029C8CEC030A00F1340C49
:102D6000C0E90B1200218160C16001618CE81A008A
:102D7000016481624162016210BD30B590EC020ACB
:102D800030EE600ABDEEC00A10EE101A816000EE4F
:102D9000101AD0ED050AB8EEC00A20EE800ABDEE8A
:102DA000C00A10EE102A0262436B5C184463C36AC7
:102DB0009C4200DD4363D0E90C349C4200DA43635B
:102DC00090ED0D0AD0ED060AB8EEC00A20EE800A9A
:102DD000BDEEC00A10EE104A4462C568D0ED070A85
:102DE0004B1B00EE103A2244B8EEC00A20EE200A37
:102DF000BDEEC00A10EE103A83621A4400EE102AAB
:102E0000D0ED0E0AB8EEC00AB8EEE01AB4EEC01A61
:102E1000F1EE10FA01D2B8EEE00AD0ED0F0AB8EEEA
:102E2000E01AB4EEC01AF1EE10FA01DDB8EEE00AD5
:102E3000BDEEC00A10EE102A12B20264C0E90315FA
:102E400030BD70477047000070B50C4601461D4606
:102E50001646084800F016F82146074800F012F818
:102E60003146064800F00EF82946BDE87040044897
:102E700000F008B824010020DC0000206C010020D4
:102E80009400002010B5134C00224B42A04206D102
:102E900000291BDB0368DA630068016410BD0E4C77
:102EA000A04202D00D4CA0420CD1002907DA0168E3
:102EB000CA630068036410BD0068026410BD036843
:102EC000D963F9E7064CA042E2D010BD0168CB639C
:102ED000F2E7000094000020DC0000202401002024
:102EE0006C010020FDF7DABE30B593B030216846A2
:102EF000FDF78BFA14210CA8FDF787FA1D48002571
:102F0000016841F080510160006800F0805011902C
:102F10001948016841F4804101600068022400F40E
:102F20008040119001200090000401908001CDE9C3
:102F3000064008AA0420A82182E813000B906846E6
:102F4000FEF730F808B172B6FEE70CA90F2081E851
:102F500031004FF4A0500F904FF480501090052195
:102F60000CA8FDF735FF002801D072B6FEE713B0BC
:102F700030BD000040380240007000400248016847
:102F800041F470010160704788ED00E00148FEF7F0
:102F90006EBB0000B4010020F0B50268274B284D3D
:102FA000284E294F294C4FF0804C984209D060455B
:102FB00007D0A84205D0B04203D0B84201D0A04209
:102FC00004D122F0700E4A6842EA0E0298421BD0E9
:102FD000604519D0A84217D0B04215D0B84213D0DE
:102FE000A04211D01A4DA8420ED01A4DA8420BD0C3
:102FF000194DA84208D0194DA84205D0184DA84235
:1030000002D0184DA84203D122F44075CA682A4361
:103010004D6922F080022A438D68C5620D68856281
:10302000984201D0A04201D109690163016841F0D1
:1030300004010160012141610260F0BD0000014016
:103040000004004000080040000C00400004014063
:103050000040014000440140004801400018004089
:10306000001C00400020004010B501F01F030121AA
:10307000046A99408C430462016A9A4011430162D8
:1030800010BD10B5846842EA032224F47F440A4349
:103090002243826010BD826822F070020A4342F02F
:1030A0000701816070470000F0B5036A026A22F0F0
:1030B0000102026242688469124E24F073050C68B2
:1030C0002C4323F002058B682B430D4DA84201D001
:1030D000B04205D123F00807CB683B4323F004033B
:1030E000A84201D0B04205D14D6922F44072154387
:1030F0008A692A4342608461496841630362F0BD82
:103100000000014000040140F0B5026A036A23F0A8
:1031100010030362436884690D6824F4E64444EABA
:1031200005248D6822F0200242EA05120F4D104E50
:10313000A84201D0B04206D1CF6822F0800242EA14
:10314000071222F04002A84201D0B04207D14D69D7
:1031500023F4406343EA85038D6943EA85034360B2
:103160008461496881630262F0BD00000000014093
:1031700000040140F0B5026A036A23F4807303621D
:103180004368C46922F4007224F073050C68124E7F
:103190002C438D6842EA05220E4DA84201D0B04270
:1031A00006D1CF6822F4006242EA072222F480624C
:1031B000A84201D0B04207D14D6923F4405343EAFD
:1031C00005138D6943EA05134360C4614968C1630F
:1031D0000262F0BD000001400004014030B5046A05
:1031E000026A22F4805202624268C3690D6823F4C5
:1031F000E64343EA05238D6824F4005444EA053489
:10320000084DA84202D0084DA84204D14D6922F4CD
:10321000804242EA85124260C361496801640462E7
:1032200030BD0000000001400004014010B5036AF9
:10323000046A24F001040462846924F0F00444EA7E
:10324000021423F00A020A438461026210BD10B521
:10325000036A046A24F010040462846923F0A00362
:1032600024F4704444EA023243EA011182610162AB
:1032700010BD00000148FEF771BC000044020020B0
:1032800010B5806B0021C185FEF766FC10BD01689A
:103290000C3151E8002F22F4907241E80023002BFA
:1032A000F5D10168143151E8002F22F0010241E804
:1032B0000023002BF5D1016B012909D101680C31E4
:1032C00051E8002F22F0100241E80023002BF5D135
:1032D000202180F8421000210163704708B590F862
:1032E0004210222901D0022008BD82684FF4805389
:1032F0009A4201D1016921B1816A9A421BD04AB137
:103300000AE00268816A5268C2F308020A80816A90
:10331000891C08E0026972B10268526802F07F02FB
:103320000A70816A491C8162C18D491E0904090C19
:10333000C18503D01BE002685268F1E70168CA68E2
:1033400022F02002CA600168CA6822F48072CA6052
:1033500001684A6922F001024A61202180F8421086
:1033600000214163026B012A03D0FEF71BFE0020FF
:1033700008BD016301680C3151E8002F22F01002F2
:1033800041E80023002BF5D101680A68D20602D576
:103390000A6849680091818DFEF7DDFBE7E70000D0
:1033A00070B5044600680169E26821F44051114398
:1033B00001612169A068E26908436169114308431A
:1033C0002168CA6849F20C639A430243CA602068C4
:1033D0004169A26921F4407111434161314920687A
:1033E000884202D03049884202D1FDF79BFD01E0BE
:1033F000FDF788FDE2690023192164253226B2F524
:10340000004F626828D0A0FB0101930F9200FCF7E7
:1034100085FF0146B0FBF5F06FF01802504301EB59
:10342000800006EB0010B0FBF5F000F0F002B1FBFD
:10343000F5F002EB0012B1FBF5F06FF01803584302
:1034400001EB800006EB0010B0FBF5F000F00F0080
:1034500021681044886070BDA0FB010192185B4197
:10346000FCF75CFF0146B0FBF5F00201B1FBF5F0A3
:103470006FF01803584301EB800006EBC000B0FB6F
:10348000F5F000F0F80002EB4002B1FBF5F0584314
:1034900001EB800006EBC000B0FBF5F000F0070088
:1034A000D6E70000001001400014014081628285CF
:1034B000C28500214164222180F84210016921B1B6
:1034C0000168CA6842F48072CA6001684A6942F0C1
:1034D00001024A610068C16841F02001C16000201A
:1034E00070472DE9F843984617460D460446089E56
:1034F00024E0701C22D0FDF73BFAA0EB0800B0429C
:103500001AD8CEB12068C168490717D5802D15D0CB
:10351000402D13D00168C94309070FD40168002565
:10352000406800902046FFF7B2FE0820606484F8EF
:1035300040500120BDE8F8830320FBE720680068C5
:1035400035EA000004D00020B842D2D00020F1E7D4
:103550000120F9E70148FEF701BB00008C020020C2
:103560000148FEF7FBBA0000D4020020FEE709077D
:10357000090E002804DB00F1E02080F800147047F9
:1035800000F00F0000F1E02080F8141D70470000EB
:1035900010B52DED020B2DED088B84B09DED0C0BBD
:1035A00051EC100B00F030FD41EC180B9DED0C0BB5
:1035B00053EC182B51EC100B00F08CFD41EC190B67
:1035C0000D989FED290B10F0004F53EC102B51EC90
:1035D000190B9FED21AB9FED22BB0ED000F0A4FB99
:1035E0000ED953EC1B2B51EC190B00F0D7FC1CD25D
:1035F00014E000BF41EC180B17E000F095FB06D279
:1036000053EC1A2B51EC180B00F064FDF2E753EC6D
:103610001B2B51EC190B00F0C1FC06D853EC1A2BF4
:1036200051EC180B00F08CFAE4E78DED028B9DED68
:103630000C0B18EE901A10EE900A8DED000B61F352
:103640001E0003909DED020B04B0BDEC088B02B090
:1036500010BD000000000000000000000000F03F6E
:10366000000000000000E03F000000000000E0BF9C
:103670002A4910B50C782A4A0023E4B3012C45D01E
:10368000022C4AD14C781055641CE0B248700B28CB
:1036900043D10020145C401C2344C0B2DBB20A2892
:1036A000F8D3907A984229D1B2F9020000EE100ABC
:1036B000F8EEC00A9FED1B0A20EE801ADFED1A0A11
:1036C00021EE201A81ED011AB2F9040001EE100A70
:1036D000B8EEC11A21EE001A21EE201A81ED021A6D
:1036E000B2F9060001EE100AB8EEC11A21EE000A86
:1036F00020EE200A00E003E081ED030A00200AE04A
:1037000055280AD14B78D054012004E0532804D125
:103710004B78D05402200870487010BD280000205B
:103720001C07002000000038000034432DED028B00
:1037300082B0FDF7BBFAFFF7D7FBFEF73DFEFEF7C1
:103740009BFEFFF773F8FFF7A9F8FEF7B5FEFEF74B
:103750001FFFFEF771FFFEF7C5FFFFF717F8FFF732
:1037600039F8FFF77FF80821CE48FEF741F90C2120
:10377000CC48FEF73DF90821CB48FEF739F90C217A
:10378000C948FEF735F90821C848FEF731F90C2180
:10379000C648FEF72DF90821C548FEF729F90C2186
:1037A000C348FEF725F90021C248FEF721F9C248B7
:1037B000FDF7AEFEFFF7DDF8C0A0642300680190BE
:1037C000012201A9BE48FEF741FC6423012201A9A0
:1037D000BC48FEF73BFC6423012201A9BA48FEF76E
:1037E00035FC0122B949B648FEF7CEFB0122B849A3
:1037F000B448FEF7C9FB9FEDB78AB848B64D4342BF
:10380000002285ED008A1146B0EE481AF0EE480A13
:103810009FEDB30A00902846FFF79AFA9FEDB10A90
:10382000B14880ED000A9FEDB10AB148B14CDFF814
:10383000C89280ED000A4FF47A7867423B464A46C8
:1038400046464146B0EE481AF0EE480AB7EE000A86
:10385000A5480094FFF77CFA3B464A463146B0EE55
:10386000481AF0EE480AB0EE480AA1480094FFF763
:103870006FFA9048002400684463DFF880B2DFF8F4
:1038800080924FF4807A564651465F46584601E092
:1038900031463846FDF766F80028F9D00821994EE0
:1038A00000E008213046FDF75DF80028F9D0B9F9AD
:1038B00000004E46404505DC00234FF4967201217E
:1038C0000094ECE0A0F2E93140F2A362914206D804
:1038D00000234FF4967219460120009429E0A0F6C7
:1038E0008D224FF496618A4219D200231A46194656
:1038F0001846FFF7A9FA00231A461946012000943A
:10390000FCF7AAFE0120FCF723FF00231A46194604
:103910001846FFF799FA0023282200949CE0A0F6AD
:103920003D72C72A08D863496420096848632CE0BF
:103930000220FCF791FE49E0A0F58052053A8A4248
:103940001DD25C4800684463012100234FF4967245
:1039500008460094FCF780FE0120FCF7F9FE0023E6
:103960002822012102200094FCF776FE6648296C8B
:10397000401AA1F5B851703903460A4624E0A0F573
:10398000A052B53AB2F52F7F04D200231A46012186
:103990000094CDE7A0F5B852713A8A4250D2002384
:1039A00001211A4608460094FCF756FE0120FCF758
:1039B000CFFE00233222194602200094FCF74CFE71
:1039C00000231A4619461846FFF73EFA4F4800688A
:1039D00000F06AFC41EC100B0627002102230322B1
:1039E00008460097FFF74AF84948006800F05CFC79
:1039F00041EC100B02230322082100200097FFF75F
:103A00003DF84448006800F04FFC41EC100B0223E5
:103A10000322102100200097FFF730F800970523BC
:103A2000B6F9002018210020FFF7FAF800970623C6
:103A3000202100202A6CFFF716F9FFF743F922E74F
:103A40006FF4E1520244C72A08D81A496420096871
:103A5000486300231A460094002169E7A0F5E0506E
:103A6000E93888420DD213480068446300232822B5
:103A7000012102200094FCF7EFFD0120FCF768FE15
:103A800026E700231A46012102200094FCF7E4FDFA
:103A90000120FCF75DFE00236422194600940120FA
:103AA00062E7000094000020DC00002024010020D8
:103AB0006C010020FC010020B40100205500000032
:103AC000D40200208C0200204402002007000020C5
:103AD000040000200000000028070020F1D8FFFFAC
:103AE000000096430000AA436C0700200000A0439A
:103AF000B007002078ECFFFF18FCFFFF0008024031
:103B000038000020000C024090E8FFFF3400002045
:103B10002C000020300000200A46014664230148A2
:103B2000FEF794BA4402002081F00041704780F013
:103B30000040704721F00041704720F0004070477E
:103B400010B591EA030F48BF83F0004300F1CA8229
:103B5000841A71EB030C05D2121943EB0C03001B02
:103B600061EB0C01DFF824E14FEA1154A4EB135C84
:103B70001EEA430F18BF9EEA445F73D023EA0E0388
:103B8000DCF1200E21EA045143F4801332D322FAEF
:103B90000CFE10EB0E0023FA0CFE41EB0E01CCF1F3
:103BA000200E03FA0EFE10EB0E0051F10001B1F5EC
:103BB000801FCCF1200E32D201EB045112FA0EF22A
:103BC000BDE8104058BF7047401C38BF5FEA420252
:103BD00018BF7047002814BF20F0010041F1000118
:103BE0004FEA410313F5001F38BF7047A1F1C041F0
:103BF00000F0CEB9012A43EB0302ACF1200CDCF15A
:103C00001F0E32BF4FF0000E23FA0CF310EB03002F
:103C100041EB0451B4EB115FD0D0A1EB045101F59D
:103C2000801149085FEA300001EB04510ED350F1D6
:103C3000000038BF12FA0EFE08D1BDE81040C9E7F7
:103C4000401C38BF5FEA4202CAD1C3E7BDE810405A
:103C50004FEA410313F5001F38BF7047A1F1C0417F
:103C600000F096B99EEA445F08D011EA5E0FBDE805
:103C7000104004BF01F0004100207047BDE8104033
:103C800070B500F037F900BF64FBBE3E0000E0FFF6
:103C9000491058BFC1F140415B1058BFC3F14043C8
:103CA0008B42EFF3008070474FEA1153A3F5806316
:103CB000D3F11E03A8BFD3F1200C08DB4FF0004264
:103CC00042EAC12252EA505232FA03F070470942E6
:103CD0000BD4102BC4BF0020704703F5787CBCF1D7
:103CE000FF3F05D04FF0FF3070474FF000007047A6
:103CF00070B500F0FFF800BF4992248000207047A3
:103D0000F0E7B0FA80F310FA03F10AD0C3F11D0313
:103D100003F580634FEA41504FEA035202EBD12191
:103D200070474FF00000704751EA030C17D41CF5A0
:103D3000801F58BFBCF5801F00F10680994218BF54
:103D4000704708BF9042704707D711F5801F58BFD2
:103D500013F5801F19D499427047894270471CF5AA
:103D6000801F08D5BCF5801FF7D58B4218BF704760
:103D700008BF824270474FF4001C1CEB410F38BF54
:103D80001CEB430F01D28B42704770B500F0B2F8C4
:103D9000922449004FF000514FF08053FFF778BF55
:103DA000DFF848C170B51CEA111E1EBF1CEA1315CE
:103DB0009EEA0C0F95EA0C0F00F06F8081EA030475
:103DC00023EA4C134EEAD47E21EA4C1141F48011CF
:103DD00043F48013AE44A1FB024CA0FB0365AEF19B
:103DE0007F7E361955EB0C05A1FB034C4CF100030B
:103DF000A0FB021C16EB0C06654153F100030942BF
:103E000018BF46F0010613F4007F0BD14FEA0331CF
:103E10004FEA0530340341EA155140EA16506FF07D
:103E200003020AE04FEAC3214FEAC520F40241EA47
:103E3000555140EA56506FF0020202EB2E4201EB60
:103E4000025585EACE710AD05FEA440C18BF24F00F
:103E5000004450F1000041F1000120EAD47040F22A
:103E6000FE7C624500D270BDA84214BF4FF0804472
:103E70004FF04044002E08BF0024BEF1806FA8BF61
:103E8000A1F1C041BDE8704080F282804FF0000097
:103E900001F1C04101F0004170479EEA0C0F0CEAAD
:103EA000131518BF95EA0C0F06D04FF0000081EAF9
:103EB000030E0EF0004170BD00F01CF88900013EB9
:103EC00000F007B800F009B84FEA430C5FEA5C5C09
:103ED00008D081EA030100F05BB84FEA410C5FEAC9
:103EE0005C5CF6D14FF00000014970470000FF070D
:103EF0000000F87F0EF1020E2EF0030E5EF8046B48
:103F0000364205D4012A43EB030515F5001F12D8EC
:103F1000012841EB010C1CF5001F0CD80ED14FEA13
:103F2000D17C15F5001F0CEB4C0C0CF1020C08BFFA
:103F30004CEBD37C04E04FF0080C01E04FEAD37C5B
:103F40000CEB4C0526FA05F606F00706B6F1040C54
:103F500006D20EEB860CBDE870404CF0010C6047B9
:103F6000DFE80CF0090B02024FF000414FF00000B7
:103F7000A1F5002170BD19461046012851EB01043E
:103F800018BFD4F5001484BF002001F0004170BDBB
:103F90000808A0F500114FEA3101704753EA010CFF
:103FA00017D41CF5801F58BFBCF5801F00F1068098
:103FB0008B4218BF704708BF8242704707D713F57E
:103FC000801F58BF11F5801F19D48B4270479B4248
:103FD00070471CF5801F08D5BCF5801FF7D59942A6
:103FE00018BF704708BF904270474FF4001C1CEB8D
:103FF000430F38BF1CEB410F01D2994270470FB4F9
:104000000CBC03BCFFF7C1BE5FEA410C5FEA5C5C1D
:10401000ACF580635B1C39D4D3F1340240F34580A6
:10402000B2F1200314DA4FF0010C0CFA02FCACF1EF
:1040300001030340B3EB5C0220EA030008BF10EA6F
:104040000C0F98BF704710EB0C0041F10001704756
:104050000AD0C3F1200201FA02FC012821FA03F17F
:1040600001FA03F14CF100004FF0010C0CFA03FCD3
:10407000ACF10103B0F1004F21EA030108BF11EADE
:104080000C0F4FF0000088BF61447047B3F1FF3F51
:1040900028BF50EAC12C01F000414FF0000084BF5E
:1040A00041F07C5141F470017047B3F5806FB8BFA7
:1040B000704770B5FFF71EFF40DBB6BE91EA030FF5
:1040C00010B581F000413FF543AD83F0004300F0AF
:1040D00009B8000010B591EA030F48BF83F0004310
:1040E0003FF536AD841A71EB030C07D212198CF030
:1040F000004C43EB0C03001B61EB0C01DFF8A4E167
:104100004FEA1154A4EB135C1EEA430F18BF9EEA5A
:10411000445F00F0B08023EA6E03524221EA04516A
:10412000C3EB6E0338BF5B1EDCF1200E25D322FAF1
:104130000CFE10EB0E0043FA0CFE41EB0E01CCF12D
:10414000200E03FA0EFE10EB0E0051F10001CCF12F
:10415000200E29D412FA0EF201EB0451BDE81040F2
:1041600058BF7047401C1CBFB2F1004F7047002879
:104170000CBF491C20F00100704712EB020E43EB0C
:10418000030218BF4FF0010E4EEA4202ACF1200CC0
:10419000DCF11E0E54D943FA0CFE10EB0E0051F167
:1041A000FF31CCF11E0ED5D50EF1010E12FA0EFE26
:1041B000404141EB010101EB445C5FEA5C5C10D9DA
:1041C00010EBDE7001EB045138BFBEF1004FBDE8CB
:1041D000104018BF704700280CBF491C20F0010098
:1041E000704730D24FEAD42C11F5001124F400644A
:1041F0001BD0B1FA81F20B3AA41AA41ED2F120030B
:10420000914030FA03F31943904001EBCC71002C3C
:1042100001EB0451BDE81040A8BF704701F1C04157
:104220004FF0000001F000417047B0FA80F310FA3F
:1042300003F100D110BDE41A173C4805C90AE4E7B0
:1042400001EB045110BD491001EB0451BDE81040D1
:104250004FEA300002E04FF0000170474A0008BF0B
:104260000042F8D0B2F5001F28BF704701F00041AE
:104270004FF0000070479EEA445F07D011EA5E0FDE
:10428000BDE8104004BF002100207047BDE8104089
:1042900070B5FFF72FFE00BF40DFF63E83F0004110
:1042A000104670470000E0FF43004FEAD30C4FEA8E
:1042B0003C0C43401FBF40070CF1605113F0FE4F10
:1042C00070471CF0006F03D100200CF000417047D4
:1042D0000CF0004343EA507010B540EACC0000F007
:1042E0000EF800BF000000924FEA0001FFF750BE39
:1042F0004FF000414FF00000A1F5002170470EF192
:10430000020E2EF0030E5EF8044B244204D44FEA52
:104310004102B2F17F4F11D84FEA4003B3F17F4F12
:104320000CD80ED14FEAD07CB2F17F4F0CEB4C0C85
:104330000CF1020C08BF4CEBD17C04E04FF0080CF0
:1043400001E04FEAD17C0CEB4C0324FA03F404F0B7
:104350000704B4F1040C06D20EEB840CBDE8104047
:104360004CF0010C6047DFE80CF0070802024FF048
:104370000040A0F5800010BD0846420018BFD2F1F1
:10438000807288BF00F0004010BD4FF04070E1EE39
:10439000100A704700000000000000000102030442
:1043A00006070809000000000102030400000000E5
:1043B000000000000000000000000000000000F805
:1043C00000000000000000333000000000160E0066
:1043D000160E0000000000000000000040C0784001
:1043E000C0784000043F04043F040400007088FCCF
:1043F00008300000001820FF211E0000F008F00027
:10440000E018000000211C031E211E0000F0088897
:10441000700000001E21232419272110000000161F
:104420000E0000000000000000000000000000E09E
:1044300018040200000000071820400000020418C1
:10444000E00000000040201807000000404080F01D
:10445000804040000202010F01020200000000F053
:10446000000000000101011F010101000000000027
:104470000000000000B0700000000000000000001C
:104480000000000000010101010101010000000025
:1044900000000000003030000000000000000000BC
:1044A00080601804006018060100000000E0100899
:1044B0000810E000000F102020100F00001010F86E
:1044C000000000000020203F2020000000700808AD
:1044D000088870000030282422213000003008882D
:1044E000884830000018202020110E000000C02055
:1044F00010F8000000070424243F240000F8088876
:10450000880808000019212020110E0000E0108802
:1045100088180000000F112020110E000038080834
:10452000C83808000000003F000000000070880844
:1045300008887000001C222121221C0000E01008C5
:104540000810E0000000312222110F00000000C01E
:10455000C00000000000003030000000000000C07B
:10456000C0000000000080B070000000000080402B
:1045700020100800000102040810200040404040C4
:104580004040400004040404040404000008102017
:10459000408000000020100804020100007048085C
:1045A0000808F0000000003036010000C030C828C4
:1045B000E810E0000718272423140B000000C0387F
:1045C000E0000000203C23020227382008F88888F9
:1045D00088700000203F202020110E00C030080805
:1045E00008083800071820202010080008F80808DC
:1045F0000810E000203F202020100F0008F88888D5
:10460000E8081000203F20202320180008F88888A0
:10461000E8081000203F200003000000C030080818
:104620000838000007182020221E020008F80800A1
:104630000008F808203F210101213F20000808F868
:10464000080800000020203F20200000000008088B
:10465000F8080800C08080807F00000008F888C04B
:1046600028180800203F20012638200008F80800FC
:1046700000000000203F20202020300008F8F80033
:10468000F8F80800203F003F003F200008F830C045
:104690000008F808203F200007183F00E010080835
:1046A0000810E0000F10202020100F0008F8080864
:1046B0000808F000203F210101010000E010080877
:1046C0000810E0000F18242438504F0008F888889C
:1046D00088887000203F2000030C3020007088087C
:1046E000080838000038202121221C00180808F88A
:1046F000080818000000203F2000000008F808000B
:104700000008F808001F202020201F0008788800DB
:1047100000C83808000007380E010000F80800F84B
:104720000008F800033C0700073C030008186880F5
:104730008068180820302C03032C30200838C8006B
:10474000C83808000000203F2000000010080808BA
:10475000C83808002038262120201800000000FE5C
:10476000020202000000007F40404000000C30C008
:1047700000000000000000010638C0000002020234
:10478000FE000000004040407F00000000201008B4
:1047900004081020000000000000000000000000DD
:1047A00000000000808080808080808000020408FB
:1047B00000000000000000000000000000008080F9
:1047C000808000000019242222223F2008F8008067
:1047D00080000000003F112020110E00000000802A
:1047E00080800000000E11202020110000000080B9
:1047F0008088F800000E112020103F2000008080EB
:1048000080800000001F222222221300008080F0FE
:10481000888888180020203F202000000000808029
:1048200080808000006B94949493600008F800806E
:1048300080800000203F210000203F2000809898C9
:10484000000000000020203F202000000000008029
:104850009898000000C08080807F000008F8000069
:1048600080808000203F24022D302000000808F8BE
:10487000000000000020203F202000008080808079
:1048800080808000203F20003F20003F008080008B
:104890008080000000203F2100203F200000808019
:1048A00080800000001F202020201F0080800080CA
:1048B0008000000080FFA12020110E000000008079
:1048C00080808000000E112020A0FF80808080006A
:1048D0008080800020203F21200001000000808097
:1048E000808080000033242424241900008080E08C
:1048F000808000000000001F202000008080000059
:1049000000808000001F202020103F208080800039
:104910000080808000010E30080601008080008049
:10492000008080800F300C030C300F00008080006E
:10493000808080000020312E0E3120008080800099
:104940000080808080818E70180601000080808049
:10495000808080000021302C2221300000000000E7
:10496000807C020200000000003F40400000000088
:10497000FF00000000000000FF0000000002027CB9
:10498000800000000040403F0000000000804040E8
:104990008000008000000000000101000000000015
:1049A00000000000002F00000000070007000014B6
:1049B0007F147F1400242A7F2A12002313086462C4
:1049C00000364955225000000007000000001C225C
:1049D0004100000041221C000014083E0814000899
:1049E000083E0808000000A0600000080808080849
:1049F000000060600000002010080402003E5149E1
:104A0000453E0000427F400000426151494600217E
:104A100041454B31001814127F1000274545453998
:104A2000003C4A49493000017109050300364949F3
:104A3000493600064949291E0000363600000000AC
:104A400056360000000814224100001414141414F7
:104A5000000041221408000201510906003E495598
:104A6000592E007C1211127C007F49494936003EC4
:104A700041414122007F4141221C007F4949494177
:104A8000007F09090901003E4149497A007F080871
:104A9000087F0000417F4100002040413F01007F2E
:104AA00008142241007F40404040007F020C027FFA
:104AB000007F0408107F003E4141413E007F09090C
:104AC0000906003E4151215E007F09192946004632
:104AD000494949310001017F0101003F4040403F09
:104AE000001F2040201F003F4038403F0063140853
:104AF000146300070870080700615149454300002E
:104B00007F414100000204081020000041417F0065
:104B10000004020102040040404040400000010245
:104B20000400002054545478007F4844443800382E
:104B30004444442000384444487F003854545418B6
:104B400000087E0901020018A4A4A47C007F0804C8
:104B500004780000447D4000004080847D00007F98
:104B6000102844000000417F4000007C04180478B5
:104B7000007C0804047800384444443800FC2424B1
:104B800024180018242418FC007C08040408004899
:104B90005454542000043F444020003C4040207CBA
:104BA000001C2040201C003C4030403C00442810A9
:104BB0002844001CA0A0A07C004464544C44000085
:104BC000087F41000000007F00000000417F0800D6
:104BD0000008040810080000F84B0008000000203E
:104BE00040000000C4010008384C000840000020CC
:104BF000180E0000E00100080000000000000000A6
:104C000000000000000000000000000000000000A4
:104C10000100000010000000000000000024F4006B
:104C20000000000000000000000000000000000084
:084C300000000000000000007C
:040000050800018965
:00000001FF
